:100000000C943E000C9448000C9448000C9448005A
:100010000C9448000C9448000C9448000C94480040
:100020000C9448000C9448000C9448000C94480030
:100030000C9448000C9448000C9448000C94480020
:100040000C9448000C9448000C9448000C94480010
:100050000C9448000C9448000C9448000C94480000
:100060000C9448000C9448000C9448000C944800F0
:100070000C9448000C9448000C94480011241FBEB6
:10008000CFEFD8E0DEBFCDBF0E944A000C94C7007E
:100090000C9400008FEF81B984B987B91AB815B8EC
:1000A00020E080E090E032E041E04A9947C0211131
:1000B00048C04A99FACF2FEF50E762E021505040F4
:1000C0006040E1F700C0000001964A9903C08837FC
:1000D00091058CF39595879545B92FE35DE063E035
:1000E000215050406040E1F700C0000015B82FE3F8
:1000F0005DE063E0215050406040E1F700C0000047
:1001000045B92FE35DE063E0215050406040E1F7E6
:1001100000C0000015B82FE35DE063E021505040BF
:100120006040E1F700C000002FEF53ED60E3215085
:1001300050406040E1F700C0000003C0222309F4F2
:10014000B4CF009769F435B92FEF59E668E1215033
:1001500050406040E1F700C0000015B820E0A5CF96
:1001600035B92FE75AE166E0215050406040E1F791
:1001700000C0000015B82FE75AE166E0215050405A
:100180006040E1F700C00000019721E08ECFF894B5
:02019000FFCF9F
:00000001FF
