:100000000C943E000C9448000C9448000C9448005A
:100010000C9448000C9448000C9448000C94480040
:100020000C9448000C9448000C9448000C94480030
:100030000C9448000C9448000C9448000C94480020
:100040000C9448000C9448000C9448000C94480010
:100050000C9448000C9448000C9448000C94480000
:100060000C9448000C9448000C9448000C944800F0
:100070000C9448000C9448000C94480011241FBEB6
:10008000CFEFD8E0DEBFCDBF0E9453000C94A1009B
:100090000C940000009731F022E02A95F1F700C09F
:1000A0000197F8CF08958FEF81B984B987B91AB84D
:1000B00015B811E0C8EED3E088EBE82E8BE0F82EFF
:1000C00098EEC92E93E0D92E01E0CE01B7010E942F
:1000D0007900892B09F02197112331F005B9CE0160
:1000E0000E944A001027F1CF15B8C6018C1B9D0B4A
:1000F000F7CF97FB072E16F4009407D077FD09D0B1
:100100000E948D0007FC05D03EF4909581959F4F8D
:100110000895709561957F4F0895AA1BBB1B51E10F
:1001200007C0AA1FBB1FA617B70710F0A61BB70B67
:10013000881F991F5A95A9F780959095BC01CD010C
:060140000895F894FFCFC2
:00000001FF
