:100000000C943E000C9448000C9448000C9448005A
:100010000C9448000C9448000C9448000C94480040
:100020000C9448000C9448000C9448000C94480030
:100030000C9448000C9448000C9448000C94480020
:100040000C9448000C9448000C9448000C94480010
:100050000C9448000C9448000C9448000C94480000
:100060000C9448000C9448000C9448000C944800F0
:100070000C9448000C9448000C94480011241FBEB6
:10008000CFEFD8E0DEBFCDBF0E9456000C942F0109
:100090000C9400001816190644F4EFECF7E03197C1
:1000A000F1F700C000000197F5CF08958FEF81B9F7
:1000B00084B987B91AB815B82AEF30E081E091E029
:1000C000882309F49CC095B9892721503109C1F7CB
:1000D0002AEF30E091E0882309F499C095B9EFE365
:1000E000FFE13197F1F700C0000089272150310965
:1000F00091F72AEF30E091E0882309F48EC095B99A
:10010000EFE7FEE33197F1F700C0000089272150A7
:10011000310991F72AEF30E091E0882309F47FC09C
:1001200095B9EFEBFDE53197F1F700C000008927A5
:100130002150310991F72AEF30E091E0882309F44A
:1001400074C095B9EFEFFCE73197F1F700C00000FC
:1001500089272150310991F720E436E091E0882386
:1001600009F465C095B9892721503109C1F720E408
:1001700036E091E0882309F462C095B9E1EEF4E03D
:100180003197F1F700C0000089272150310991F71C
:1001900020E436E091E0882309F457C095B9E3ECF8
:1001A000F9E03197F1F700C00000892721503109AB
:1001B00091F720E436E091E0882309F448C095B92E
:1001C000E5EAFEE03197F1F700C0000089272150F1
:1001D000310991F720E436E091E0882309F43DC02D
:1001E00095B9E7E8F3E13197F1F700C000008927FE
:1001F0002150310991F715B880E090E0089515B8C5
:10020000EFEFFCE73197F1F700C000005DCF15B8C4
:10021000EFEBFDE53197F1F766CF15B871CF15B863
:10022000EFE3FFE13197F1F780CF15B891CF15B823
:10023000E7E8F3E13197F1F700C0000094CF15B87B
:10024000E5EAFEE03197F1F79DCF15B8A8CF15B8D4
:10025000E1EEF4E03197F1F7B7CF15B8C8CFF894D5
:02026000FFCFCE
:00000001FF
